{
  "contractName": "Organization",
  "abi": [
    {
      "constant": false,
      "inputs": [
        {
          "name": "doer",
          "type": "address"
        },
        {
          "name": "rewardAmount",
          "type": "uint256"
        }
      ],
      "name": "reward",
      "outputs": [
        {
          "name": "sufficientFunds",
          "type": "bool"
        }
      ],
      "payable": false,
      "stateMutability": "nonpayable",
      "type": "function"
    },
    {
      "constant": true,
      "inputs": [
        {
          "name": "",
          "type": "address"
        }
      ],
      "name": "balances",
      "outputs": [
        {
          "name": "",
          "type": "uint256"
        }
      ],
      "payable": false,
      "stateMutability": "view",
      "type": "function"
    },
    {
      "constant": true,
      "inputs": [],
      "name": "owner",
      "outputs": [
        {
          "name": "",
          "type": "address"
        }
      ],
      "payable": false,
      "stateMutability": "view",
      "type": "function"
    },
    {
      "constant": true,
      "inputs": [
        {
          "name": "addr",
          "type": "address"
        }
      ],
      "name": "getBalance",
      "outputs": [
        {
          "name": "",
          "type": "uint256"
        }
      ],
      "payable": false,
      "stateMutability": "view",
      "type": "function"
    },
    {
      "inputs": [],
      "payable": false,
      "stateMutability": "nonpayable",
      "type": "constructor"
    }
  ],
  "bytecode": "0x6060604052341561000f57600080fd5b6127106000803373ffffffffffffffffffffffffffffffffffffffff1673ffffffffffffffffffffffffffffffffffffffff1681526020019081526020016000208190555033600160006101000a81548173ffffffffffffffffffffffffffffffffffffffff021916908373ffffffffffffffffffffffffffffffffffffffff1602179055506103b0806100a46000396000f300606060405260043610610062576000357c0100000000000000000000000000000000000000000000000000000000900463ffffffff16806321670f221461006757806327e235e3146100c15780638da5cb5b1461010e578063f8b2cb4f14610163575b600080fd5b341561007257600080fd5b6100a7600480803573ffffffffffffffffffffffffffffffffffffffff169060200190919080359060200190919050506101b0565b604051808215151515815260200191505060405180910390f35b34156100cc57600080fd5b6100f8600480803573ffffffffffffffffffffffffffffffffffffffff169060200190919050506102fe565b6040518082815260200191505060405180910390f35b341561011957600080fd5b610121610316565b604051808273ffffffffffffffffffffffffffffffffffffffff1673ffffffffffffffffffffffffffffffffffffffff16815260200191505060405180910390f35b341561016e57600080fd5b61019a600480803573ffffffffffffffffffffffffffffffffffffffff1690602001909190505061033c565b6040518082815260200191505060405180910390f35b6000600160009054906101000a900473ffffffffffffffffffffffffffffffffffffffff1673ffffffffffffffffffffffffffffffffffffffff163373ffffffffffffffffffffffffffffffffffffffff1614151561020e57600080fd5b81806000803373ffffffffffffffffffffffffffffffffffffffff1673ffffffffffffffffffffffffffffffffffffffff168152602001908152602001600020541015151561025c57600080fd5b826000803373ffffffffffffffffffffffffffffffffffffffff1673ffffffffffffffffffffffffffffffffffffffff16815260200190815260200160002060008282540392505081905550826000808673ffffffffffffffffffffffffffffffffffffffff1673ffffffffffffffffffffffffffffffffffffffff168152602001908152602001600020600082825401925050819055508191505092915050565b60006020528060005260406000206000915090505481565b600160009054906101000a900473ffffffffffffffffffffffffffffffffffffffff1681565b60008060008373ffffffffffffffffffffffffffffffffffffffff1673ffffffffffffffffffffffffffffffffffffffff1681526020019081526020016000205490509190505600a165627a7a72305820e5fbb5f925e94e7e41c4fc25e2322b87d7b2c7eb9ac455712786643bc06986d20029",
  "source": "pragma solidity ^0.4.17;\n\n\ncontract Organization {\n    mapping (address => uint) public balances; // balances of everyone\n    address public owner; // owner of the contract\n\n    function Organization() public {\n        balances[msg.sender] = 10000;\n        owner = msg.sender;\n    }\n\n    function reward(address doer, uint rewardAmount)\n        public\n        isOwner()\n        hasSufficientFunds(rewardAmount)\n        returns(bool sufficientFunds)\n    {\n        balances[msg.sender] -= rewardAmount;\n        balances[doer] += rewardAmount;\n        return sufficientFunds;\n    }\n\n    function getBalance(address addr) public view returns(uint) {\n        return balances[addr];\n    }\n\n    modifier isOwner() {\n        require(msg.sender == owner);\n        _;\n    }\n\n    modifier hasSufficientFunds(uint rewardAmount) {\n        require(balances[msg.sender] >= rewardAmount);\n        _;\n    }\n}\n",
  "sourcePath": "/Users/nikhilwins/Desktop/truffle-book/chapter1/contracts/Organization.sol",
  "compiler": {
    "name": "solc",
    "version": "0.4.18+commit.9cf6e910.Emscripten.clang"
  },
  "schemaVersion": "1.0.1",
  "updatedAt": "2018-03-07T14:25:28.282Z"
}